{
  "_format": "hh-sol-artifact-1",
  "contractName": "Election",
  "sourceName": "contracts/voting.sol",
  "abi": [
    {
      "inputs": [],
      "stateMutability": "nonpayable",
      "type": "constructor"
    },
    {
      "anonymous": false,
      "inputs": [
        {
          "indexed": false,
          "internalType": "uint256",
          "name": "id",
          "type": "uint256"
        },
        {
          "indexed": false,
          "internalType": "string",
          "name": "name",
          "type": "string"
        },
        {
          "indexed": false,
          "internalType": "string",
          "name": "party",
          "type": "string"
        }
      ],
      "name": "CandidateAdded",
      "type": "event"
    },
    {
      "anonymous": false,
      "inputs": [],
      "name": "ElectionStarted",
      "type": "event"
    },
    {
      "anonymous": false,
      "inputs": [],
      "name": "ElectionStopped",
      "type": "event"
    },
    {
      "anonymous": false,
      "inputs": [
        {
          "indexed": false,
          "internalType": "uint256",
          "name": "candidateId",
          "type": "uint256"
        },
        {
          "indexed": false,
          "internalType": "address",
          "name": "voter",
          "type": "address"
        }
      ],
      "name": "Voted",
      "type": "event"
    },
    {
      "inputs": [
        {
          "internalType": "string",
          "name": "_name",
          "type": "string"
        },
        {
          "internalType": "string",
          "name": "_party",
          "type": "string"
        },
        {
          "internalType": "string",
          "name": "_description",
          "type": "string"
        },
        {
          "internalType": "string",
          "name": "_photoUrl",
          "type": "string"
        },
        {
          "internalType": "string",
          "name": "_partyLogoUrl",
          "type": "string"
        }
      ],
      "name": "addCandidate",
      "outputs": [],
      "stateMutability": "nonpayable",
      "type": "function"
    },
    {
      "inputs": [],
      "name": "admin",
      "outputs": [
        {
          "internalType": "address",
          "name": "",
          "type": "address"
        }
      ],
      "stateMutability": "view",
      "type": "function"
    },
    {
      "inputs": [],
      "name": "candidateCount",
      "outputs": [
        {
          "internalType": "uint256",
          "name": "",
          "type": "uint256"
        }
      ],
      "stateMutability": "view",
      "type": "function"
    },
    {
      "inputs": [
        {
          "internalType": "uint256",
          "name": "",
          "type": "uint256"
        }
      ],
      "name": "candidates",
      "outputs": [
        {
          "internalType": "uint256",
          "name": "id",
          "type": "uint256"
        },
        {
          "internalType": "string",
          "name": "name",
          "type": "string"
        },
        {
          "internalType": "string",
          "name": "party",
          "type": "string"
        },
        {
          "internalType": "string",
          "name": "description",
          "type": "string"
        },
        {
          "internalType": "string",
          "name": "photoUrl",
          "type": "string"
        },
        {
          "internalType": "string",
          "name": "partyLogoUrl",
          "type": "string"
        },
        {
          "internalType": "uint256",
          "name": "voteCount",
          "type": "uint256"
        }
      ],
      "stateMutability": "view",
      "type": "function"
    },
    {
      "inputs": [],
      "name": "electionActive",
      "outputs": [
        {
          "internalType": "bool",
          "name": "",
          "type": "bool"
        }
      ],
      "stateMutability": "view",
      "type": "function"
    },
    {
      "inputs": [
        {
          "internalType": "address",
          "name": "",
          "type": "address"
        }
      ],
      "name": "hasVoted",
      "outputs": [
        {
          "internalType": "bool",
          "name": "",
          "type": "bool"
        }
      ],
      "stateMutability": "view",
      "type": "function"
    },
    {
      "inputs": [],
      "name": "startElection",
      "outputs": [],
      "stateMutability": "nonpayable",
      "type": "function"
    },
    {
      "inputs": [],
      "name": "stopElection",
      "outputs": [],
      "stateMutability": "nonpayable",
      "type": "function"
    },
    {
      "inputs": [
        {
          "internalType": "uint256",
          "name": "_candidateId",
          "type": "uint256"
        }
      ],
      "name": "vote",
      "outputs": [],
      "stateMutability": "nonpayable",
      "type": "function"
    }
  ],
  "bytecode": "0x608060405234801561001057600080fd5b50336000806101000a81548173ffffffffffffffffffffffffffffffffffffffff021916908373ffffffffffffffffffffffffffffffffffffffff1602179055506114f8806100606000396000f3fe608060405234801561001057600080fd5b50600436106100935760003560e01c806362d73eb81161006657806362d73eb8146101245780637ed628bb1461012e578063945ddfb91461014c578063a9a981a314610168578063f851a4401461018657610093565b80630121b93f1461009857806309eef43e146100b45780632df9feaa146100e45780633477ee2e146100ee575b600080fd5b6100b260048036038101906100ad9190610a89565b6101a4565b005b6100ce60048036038101906100c99190610b14565b610391565b6040516100db9190610b5c565b60405180910390f35b6100ec6103b1565b005b61010860048036038101906101039190610a89565b610487565b60405161011b9796959493929190610c16565b60405180910390f35b61012c610771565b005b610136610848565b6040516101439190610b5c565b60405180910390f35b61016660048036038101906101619190610ddd565b61085b565b005b610170610a15565b60405161017d9190610ee4565b60405180910390f35b61018e610a1b565b60405161019b9190610f0e565b60405180910390f35b600060149054906101000a900460ff166101f3576040517f08c379a00000000000000000000000000000000000000000000000000000000081526004016101ea90610f75565b60405180910390fd5b600360003373ffffffffffffffffffffffffffffffffffffffff1673ffffffffffffffffffffffffffffffffffffffff16815260200190815260200160002060009054906101000a900460ff1615610280576040517f08c379a000000000000000000000000000000000000000000000000000000000815260040161027790610fe1565b60405180910390fd5b60008111801561029257506001548111155b6102d1576040517f08c379a00000000000000000000000000000000000000000000000000000000081526004016102c89061104d565b60405180910390fd5b6002600082815260200190815260200160002060060160008154809291906102f89061109c565b91905055506001600360003373ffffffffffffffffffffffffffffffffffffffff1673ffffffffffffffffffffffffffffffffffffffff16815260200190815260200160002060006101000a81548160ff0219169083151502179055507f030b0f8dcd86a031eddb071f91882edeac8173663ba775713b677b42b51be44b81336040516103869291906110e4565b60405180910390a150565b60036020528060005260406000206000915054906101000a900460ff1681565b60008054906101000a900473ffffffffffffffffffffffffffffffffffffffff1673ffffffffffffffffffffffffffffffffffffffff163373ffffffffffffffffffffffffffffffffffffffff161461043f576040517f08c379a00000000000000000000000000000000000000000000000000000000081526004016104369061117f565b60405180910390fd5b60008060146101000a81548160ff0219169083151502179055507f478252d52965be3d4b41c1e0263feacffb36f120d857c5fb518dd8405075487060405160405180910390a1565b60026020528060005260406000206000915090508060000154908060010180546104b0906111ce565b80601f01602080910402602001604051908101604052809291908181526020018280546104dc906111ce565b80156105295780601f106104fe57610100808354040283529160200191610529565b820191906000526020600020905b81548152906001019060200180831161050c57829003601f168201915b50505050509080600201805461053e906111ce565b80601f016020809104026020016040519081016040528092919081815260200182805461056a906111ce565b80156105b75780601f1061058c576101008083540402835291602001916105b7565b820191906000526020600020905b81548152906001019060200180831161059a57829003601f168201915b5050505050908060030180546105cc906111ce565b80601f01602080910402602001604051908101604052809291908181526020018280546105f8906111ce565b80156106455780601f1061061a57610100808354040283529160200191610645565b820191906000526020600020905b81548152906001019060200180831161062857829003601f168201915b50505050509080600401805461065a906111ce565b80601f0160208091040260200160405190810160405280929190818152602001828054610686906111ce565b80156106d35780601f106106a8576101008083540402835291602001916106d3565b820191906000526020600020905b8154815290600101906020018083116106b657829003601f168201915b5050505050908060050180546106e8906111ce565b80601f0160208091040260200160405190810160405280929190818152602001828054610714906111ce565b80156107615780601f1061073657610100808354040283529160200191610761565b820191906000526020600020905b81548152906001019060200180831161074457829003601f168201915b5050505050908060060154905087565b60008054906101000a900473ffffffffffffffffffffffffffffffffffffffff1673ffffffffffffffffffffffffffffffffffffffff163373ffffffffffffffffffffffffffffffffffffffff16146107ff576040517f08c379a00000000000000000000000000000000000000000000000000000000081526004016107f69061117f565b60405180910390fd5b6001600060146101000a81548160ff0219169083151502179055507fc475c26aa25ed8e85a7faa790e5f63b5d7ee1025f12821f4c9bfddd36ab4d11260405160405180910390a1565b600060149054906101000a900460ff1681565b60008054906101000a900473ffffffffffffffffffffffffffffffffffffffff1673ffffffffffffffffffffffffffffffffffffffff163373ffffffffffffffffffffffffffffffffffffffff16146108e9576040517f08c379a00000000000000000000000000000000000000000000000000000000081526004016108e09061117f565b60405180910390fd5b600160008154809291906108fc9061109c565b91905055506040518060e001604052806001548152602001868152602001858152602001848152602001838152602001828152602001600081525060026000600154815260200190815260200160002060008201518160000155602082015181600101908161096b91906113ab565b50604082015181600201908161098191906113ab565b50606082015181600301908161099791906113ab565b5060808201518160040190816109ad91906113ab565b5060a08201518160050190816109c391906113ab565b5060c082015181600601559050507fe64f834082661dd9ed89427b87edb6270fd6dad17198b0938f0edd058914c87f6001548686604051610a069392919061147d565b60405180910390a15050505050565b60015481565b60008054906101000a900473ffffffffffffffffffffffffffffffffffffffff1681565b6000604051905090565b600080fd5b600080fd5b6000819050919050565b610a6681610a53565b8114610a7157600080fd5b50565b600081359050610a8381610a5d565b92915050565b600060208284031215610a9f57610a9e610a49565b5b6000610aad84828501610a74565b91505092915050565b600073ffffffffffffffffffffffffffffffffffffffff82169050919050565b6000610ae182610ab6565b9050919050565b610af181610ad6565b8114610afc57600080fd5b50565b600081359050610b0e81610ae8565b92915050565b600060208284031215610b2a57610b29610a49565b5b6000610b3884828501610aff565b91505092915050565b60008115159050919050565b610b5681610b41565b82525050565b6000602082019050610b716000830184610b4d565b92915050565b610b8081610a53565b82525050565b600081519050919050565b600082825260208201905092915050565b60005b83811015610bc0578082015181840152602081019050610ba5565b60008484015250505050565b6000601f19601f8301169050919050565b6000610be882610b86565b610bf28185610b91565b9350610c02818560208601610ba2565b610c0b81610bcc565b840191505092915050565b600060e082019050610c2b600083018a610b77565b8181036020830152610c3d8189610bdd565b90508181036040830152610c518188610bdd565b90508181036060830152610c658187610bdd565b90508181036080830152610c798186610bdd565b905081810360a0830152610c8d8185610bdd565b9050610c9c60c0830184610b77565b98975050505050505050565b600080fd5b600080fd5b7f4e487b7100000000000000000000000000000000000000000000000000000000600052604160045260246000fd5b610cea82610bcc565b810181811067ffffffffffffffff82111715610d0957610d08610cb2565b5b80604052505050565b6000610d1c610a3f565b9050610d288282610ce1565b919050565b600067ffffffffffffffff821115610d4857610d47610cb2565b5b610d5182610bcc565b9050602081019050919050565b82818337600083830152505050565b6000610d80610d7b84610d2d565b610d12565b905082815260208101848484011115610d9c57610d9b610cad565b5b610da7848285610d5e565b509392505050565b600082601f830112610dc457610dc3610ca8565b5b8135610dd4848260208601610d6d565b91505092915050565b600080600080600060a08688031215610df957610df8610a49565b5b600086013567ffffffffffffffff811115610e1757610e16610a4e565b5b610e2388828901610daf565b955050602086013567ffffffffffffffff811115610e4457610e43610a4e565b5b610e5088828901610daf565b945050604086013567ffffffffffffffff811115610e7157610e70610a4e565b5b610e7d88828901610daf565b935050606086013567ffffffffffffffff811115610e9e57610e9d610a4e565b5b610eaa88828901610daf565b925050608086013567ffffffffffffffff811115610ecb57610eca610a4e565b5b610ed788828901610daf565b9150509295509295909350565b6000602082019050610ef96000830184610b77565b92915050565b610f0881610ad6565b82525050565b6000602082019050610f236000830184610eff565b92915050565b7f456c656374696f6e206973206e6f742061637469766500000000000000000000600082015250565b6000610f5f601683610b91565b9150610f6a82610f29565b602082019050919050565b60006020820190508181036000830152610f8e81610f52565b9050919050565b7f596f75206861766520616c726561647920766f74656400000000000000000000600082015250565b6000610fcb601683610b91565b9150610fd682610f95565b602082019050919050565b60006020820190508181036000830152610ffa81610fbe565b9050919050565b7f496e76616c69642063616e646964617465204944000000000000000000000000600082015250565b6000611037601483610b91565b915061104282611001565b602082019050919050565b600060208201905081810360008301526110668161102a565b9050919050565b7f4e487b7100000000000000000000000000000000000000000000000000000000600052601160045260246000fd5b60006110a782610a53565b91507fffffffffffffffffffffffffffffffffffffffffffffffffffffffffffffffff82036110d9576110d861106d565b5b600182019050919050565b60006040820190506110f96000830185610b77565b6111066020830184610eff565b9392505050565b7f4f6e6c792061646d696e2063616e20706572666f726d2074686973206163746960008201527f6f6e000000000000000000000000000000000000000000000000000000000000602082015250565b6000611169602283610b91565b91506111748261110d565b604082019050919050565b600060208201905081810360008301526111988161115c565b9050919050565b7f4e487b7100000000000000000000000000000000000000000000000000000000600052602260045260246000fd5b600060028204905060018216806111e657607f821691505b6020821081036111f9576111f861119f565b5b50919050565b60008190508160005260206000209050919050565b60006020601f8301049050919050565b600082821b905092915050565b6000600883026112617fffffffffffffffffffffffffffffffffffffffffffffffffffffffffffffffff82611224565b61126b8683611224565b95508019841693508086168417925050509392505050565b6000819050919050565b60006112a86112a361129e84610a53565b611283565b610a53565b9050919050565b6000819050919050565b6112c28361128d565b6112d66112ce826112af565b848454611231565b825550505050565b600090565b6112eb6112de565b6112f68184846112b9565b505050565b5b8181101561131a5761130f6000826112e3565b6001810190506112fc565b5050565b601f82111561135f57611330816111ff565b61133984611214565b81016020851015611348578190505b61135c61135485611214565b8301826112fb565b50505b505050565b600082821c905092915050565b600061138260001984600802611364565b1980831691505092915050565b600061139b8383611371565b9150826002028217905092915050565b6113b482610b86565b67ffffffffffffffff8111156113cd576113cc610cb2565b5b6113d782546111ce565b6113e282828561131e565b600060209050601f8311600181146114155760008415611403578287015190505b61140d858261138f565b865550611475565b601f198416611423866111ff565b60005b8281101561144b57848901518255600182019150602085019450602081019050611426565b868310156114685784890151611464601f891682611371565b8355505b6001600288020188555050505b505050505050565b60006060820190506114926000830186610b77565b81810360208301526114a48185610bdd565b905081810360408301526114b88184610bdd565b905094935050505056fea2646970667358221220ea9da9d0e2ef1c3d629f960160e61d77a108176bedb7830c431710bfa8e3c8a164736f6c63430008140033",
  "linkReferences": {},
  "deployedLinkReferences": {}
}